:1000000074C28EC28DC28CC28BC28AC289C288C29F
:1000100087C286C285C284C283C282C281C280C2B4
:100020007FC27EC27DC27CC27BC27AC279C278C2E4
:1000300077C276C2000000000000004F00000007F9
:10004000000700147F147F14242A7F2A1223130828
:10005000646236495522500005030000001C22410D
:10006000000041221C0014083E081408083E08083D
:1000700000503000000808080808006060000020F8
:10008000100804023E5149453E00427F4000426153
:100090005149462141454B311814127F10274545DF
:1000A00045393C4A494930017109050336494949F6
:1000B00036064949291E0036360000005636000033
:1000C00008142241001414141414004122140802CC
:1000D00001510906324979413E7E1111117E7F4955
:1000E0004949363E414141227F4141221C7F4949D5
:1000F00049417F090909013E4149497A7F080808B9
:100100007F00417F41002040413F017F0814224190
:100110007F404040407F020C027F7F0408107F3EFA
:100120004141413E7F090909063E4151215E7F0957
:10013000192946464949493101017F01013F4040A3
:10014000403F1F2040201F3F4038403F63140814A9
:100150006307087008076151494543007F4141002A
:1001600002040810200041417F0004020102044003
:1001700040404040010204000020545454787F481D
:100180004444383844444420384444487F38545424
:100190005418087E090102064949493F7F080404B2
:1001A0007800447D40002040443D007F10284400FA
:1001B00000417F40007C0418047C7C0804047838EB
:1001C000444444387C14141408081414187C7C0823
:1001D0000404084854545420043F4440203C404008
:1001E000207C1C2040201C3C4030403C44281028EF
:1001F000440C5050503C4464544C44000836410078
:1002000000007F0000004136080002010204023EA7
:10021000555541220000000000000079000018241C
:10022000742E24487E4942405D2222225D15167CB0
:10023000161500007700000A5555552800010001E9
:1002400000000A0D0A0408142A1422040404041CE1
:100250000008080800010101010100020502004434
:10026000445F444400000402017E2020103E060F3B
:100270007F007F00181800000040502000000A0D89
:100280000A0022142A14081708342A7D1708046A61
:10029000593048454020702926287070282629703A
:1002A000702A252A707229262970702924297070D5
:1002B0002A2D2A707E117F49490E515171117C55AA
:1002C0005654447C555654447C565556447C55549B
:1002D000554400457E440000447E450000467D466E
:1002E0000000457C45007F4949413E7C0A11227D42
:1002F0003845464438384446453838464546383807
:1003000046454639384544453822140814222E51B2
:1003100049453A3C4142403C3C4042413C3C4241E0
:10032000423C3C4140413C0C1062110C7F121212C5
:100330000C403E0149362055565478205456557885
:1003400020565556782055565578205554557820C6
:100350005657567824547854580C525272133855C4
:10036000565418385456551838565556183855544A
:10037000551800497A400000487A4100004A794205
:1003800000004A784200314A4E4A307A110A097018
:1003900030494A483030484A4930304A494A30307A
:1003A0004A494A31304A484A3008082A080838641D
:1003B000544C383841422078384042217838424104
:1003C000227838424022780C5052513C7E1414144A
:1003D000080C5150513C1E0909295E081515354E6F
:1003E000384446452030484A492038454645203063
:1003F000494A49207C454645382050507C031F150A
:100400001535510E151535467C55565544385556FB
:10041000551800447C40007F4844404000497F44D8
:10042000007C0812217C78100A09707C0912217C5A
:1004300078110A09703847444738304B484B303EF2
:10044000417F494938443854587C1516354878114D
:100450000A091048545655202048565520485556EC
:100460005520204956552004057E0504083C4822A5
:10047000013C4245423C38424522783C4340433CA3
:1004800038434023780C1160110C4466554C4448A5
:100490006A5948004464554C4448685A48004465C9
:1004A000564D4448695A4900000201020000010209
:1004B0000100000101010001020201000000010031
:1004C00000000205020002010201007F05153A50FA
:1004D0003E55554122181408140C444A4A515151B2
:1004E000514A4A4474424142740011241FBECFEF66
:1004F000D4E0DEBFCDBF11E0A0E0B1E0EAE5F4E179
:1005000002C005900D92A23BB107D9F711E0A2EB12
:10051000B1E001C01D92A43BB107E1F702D09BC737
:100520006FCDCF93DF93CDB7DEB70AD02DEC33E09C
:1005300080E090E0F901099580E091E0B9D1FFCF2A
:100540000F931F93CF93DF93CDB7DEB72E970FB6E0
:10055000F894DEBF0FBECDBFD6D184E290E024E296
:1005600030E0F90120812360FC01208385E290E0E6
:1005700025E230E0F90120812E7FFC01208380E01C
:1005800090E0A8E4B2E489839A83AB83BC83698159
:100590007A818B819C8120E030E04AEF54E4B9D32A
:1005A000DC01CB018D839E83AF83B88711E06D8121
:1005B0007E818F81988520E030E040E85FE3FDD4C4
:1005C00088230CF010E0112329F081E090E09A8755
:1005D000898742C011E06D817E818F81988520E0FE
:1005E0003FEF4FE757E491D418160CF010E01123B9
:1005F00051F169817A818B819C8120E030E040E279
:1006000051E487D3DC01CB01BC01CD01A7D1DC01D2
:10061000CB019A87898712C088EC90E09C878B87F2
:100620008B859C858C01C8010197F1F78C011C8793
:100630000B8789859A8501979A87898789859A8505
:10064000009751F716C06D817E818F81988586D184
:10065000DC01CB019A87898789859A859E878D875A
:100660008D859E858C01F8013197F1F78F011E87EA
:100670000D8785E290E025E230E0F90120812160DC
:10068000FC01208385E290E025E230E0F901208141
:100690002D7FFC0120838EEA4BD180E049D180E19F
:1006A00047D180E445D181E843D18FEC41D181EA43
:1006B0003FD188EC3DD186EA3BD188EA39D18FE33E
:1006C00037D183ED35D180E033D185ED31D180E86C
:1006D0002FD189ED2DD181EF2BD18AED29D182E166
:1006E00027D18BED25D180E423D180E221D182E096
:1006F0001FD18DE81DD184E11BD184EA19D186EA8E
:1007000017D18FEA15D182E993E0FC0109952E9665
:100710000FB6F894DEBF0FBECDBFDF91CF911F9112
:100720000F910895CF93DF9300D0CDB7DEB71A8233
:1007300026C085E290E025E230E0F90120812D7F9E
:10074000FC0120838A818055F3D080E0F1D080E1E4
:10075000EFD085E290E025E230E0F90120812260CF
:10076000FC012083198205C080E0E2D089818F5F7F
:10077000898389818823C4F78A818F5F8A838A81EC
:100780008830B8F22DEC33E080E090E0F901099573
:100790000F900F90DF91CF910895CF93DF930F9239
:1007A000CDB7DEB789838981883008F0198285E268
:1007B00090E025E230E0F90120812D7FFC012083CB
:1007C00089818055B5D080E0B3D080E1B1D08981F6
:1007D000882F90E09695982F8827979587959093E6
:1007E000B3018093B2010F90DF91CF9108951F93D1
:1007F000CF93DF9300D000D00F92CDB7DEB78D83BB
:100800008091B2019091B3018F7790708D379105EF
:1008100058F08091B2019091B301880F892F881F01
:10082000990B91958F5FB9DF8D8180528D8385E221
:1008300090E025E230E0F90120812260FC01208374
:1008400019821FC08D81282F332727FD3095C901BC
:10085000880F991F880F991F280F391F8981882FAA
:1008600090E0820F931F8C5C9F4F9B838A838A81C9
:100870009B81FC0114911C838C815AD089818F5FEC
:10088000898389818530F0F280E052D08091B20175
:100890009091B30106969093B3018093B2010F90AB
:1008A0000F900F900F900F90DF91CF911F910895AF
:1008B000CF93DF9300D000D0CDB7DEB79C838B837E
:1008C0001A8219820FC089819A812B813C81820F03
:1008D000931FFC01208189819A8101969A838983E3
:1008E000822F85DF89819A812B813C81820F931F22
:1008F000FC018081882339F70F900F900F900F90A3
:10090000DF91CF910895CF93DF93CDB7DEB784E227
:1009100090E024E230E0F90120812C62FC01208388
:100920008CE490E020E5FC012083DF91CF910895D5
:10093000CF93DF930F92CDB7DEB789838EE490E03B
:100940002981FC01208300008DE490E0FC0180817E
:100950008823D4F70F90DF91CF910895CF92DF9243
:10096000EF92FF920F931F936B017C0120E030E028
:1009700040E05FE4F6D287FD0FC0C701B60120E07A
:1009800030E040E05FE493D144D38B019C01005000
:1009900010402040304805C0C701B6013AD38B0152
:1009A0009C01B801C9011F910F91FF90EF90DF905A
:1009B000CF900895A0E0B0E0EFEDF4E017C5EC01B2
:1009C0004B01FA018881823008F43EC1DB019C9121
:1009D000923008F436C1843059F4943009F034C1AF
:1009E000998111968C911197981709F027C12CC104
:1009F000943009F426C19230A9F4823009F024C160
:100A0000CE0128E0DC010D90CD01DA010D92AD019F
:100A10002150C1F7D40111968C91119799818923A6
:100A2000818311C1823009F40CC1AA80BB80DB0133
:100A300012964D915C911397CC80DD80EE80FF8003
:100A400014960D911D912D913C911797C501841B12
:100A5000950BDC0197FF04C0AA27BB27A81BB90B85
:100A6000A032B1050CF067C01816190684F52801EC
:100A700039010A2E04C076946794579447940A94D7
:100A8000D2F741E050E060E070E004C0440F551F31
:100A9000661F771FAA95D2F74150504060407040C2
:100AA000402351236223732381E090E0A0E0B0E073
:100AB000411551056105710519F480E090E0DC01F4
:100AC0008C019D0104291529262937293FC000974B
:100AD000E9F1AA0EBB1E260137010A2E04C0769446
:100AE0006794579447940A94D2F741E050E060E04D
:100AF00070E004C0440F551F661F771FAA95D2F7F8
:100B000041505040604070404C215D216E217F215A
:100B100081E090E0A0E0B0E041155105610571056C
:100B200019F480E090E0DC016C017D01C428D52837
:100B3000E628F7280BC04A155B0524F400E010E016
:100B4000980104C05A01CC24DD2476018981D401A6
:100B500011969C911197891709F445C0882329F0B3
:100B60000C191D092E093F0908C0D701C601801BB9
:100B7000910BA20BB30B8C019D0137FD04C01182B8
:100B8000B382A2820BC081E08183B382A2823095BE
:100B90002095109501951F4F2F4F3F4F04831583CC
:100BA000268337830DC0880F991FAA1FBB1F84831C
:100BB0009583A683B78382819381019793838283F0
:100BC00084819581A681B781AC01BD01415050401F
:100BD000604070404F3F2FEF52072FEF62072FE327
:100BE000720708F30BC08183B382A2820C0D1D1D16
:100BF0002E1D3F1D048315832683378383E0808366
:100C0000448155816681778177FF1DC0DB01CA0170
:100C100081709070A070B0707695679557954795E4
:100C2000842B952BA62BB72B84839583A683B78320
:100C30008281938101969383828305C0C9EAD1E0C2
:100C400003C0E40101C0EF01CE01CDB7DEB7E0E1A2
:100C5000E9C3A0E2B0E0EEE2F6E0D6C3DC01CB01EE
:100C60008D839E83AF83B88729833A834B835C83CC
:100C7000CE010596BE01675E7F4FF0D2CE01019690
:100C8000BE016F5E7F4FEAD2CE014996BE016F5E14
:100C90007F4FAE01475F5F4F8DDE09D2462F572F42
:100CA000682F792FCB01BA01A096E2E0C9C3A0E278
:100CB000B0E0ECE5F6E0A8C3DC01CB018D839E83B8
:100CC000AF83B88729833A834B835C83CE01059633
:100CD000BE01675E7F4FC2D2CE010196BE016F5E3C
:100CE0007F4FBCD28A8991E089278A8BCE014996B1
:100CF000BE016F5E7F4FAE01475F5F4F5BDED7D1B6
:100D0000462F572F682F792FCB01BA01A096E2E02A
:100D100097C3A0E2B0E0EEE8F6E068C3DC01CB01E7
:100D20008D839E83AF83B88729833A834B835C830B
:100D3000CE010596BE01675E7F4F90D2CE0101962F
:100D4000BE016F5E7F4F8AD2998D923078F089898B
:100D50008230C0F0943019F4823041F4CAC084303B
:100D600019F4923079F4C5C0923051F481E02A8DA3
:100D70009A89291709F480E08A8FCE014996BBC071
:100D8000823051F481E02A8D9A89291709F480E094
:100D90008A8BCE014196AFC04D8C5E8C6F8C78A053
:100DA0000D891E892F89388DE0E2F0E040E050E0A7
:100DB000BA01882499245401CC24DD247601C2018F
:100DC000817090700097D1F0C00ED11EE21EF31E0C
:100DD000DB01CA01880D991DAA1DBB1D41E050E031
:100DE00060E070E0C016D106E206F30618F040E0BD
:100DF00050E0BA01480F591F6A1F7B1F880C991CCD
:100E0000AA1CBB1C37FF08C081E090E0A0E0B0E066
:100E1000882A992AAA2ABB2A000F111F221F331FD2
:100E20007694679457944794319749F68B8D9C8DAF
:100E30002B893C89820F931F02969C878B8781E0C8
:100E40002A8D9A89291709F480E08A872B853C85A9
:100E500017C0CA0181709070009761F0F694E79412
:100E6000D794C79480E090E0A0E0B0E8C82AD92ADF
:100E7000EA2AFB2A76956795579547952F5F3F4F4E
:100E800077FDE7CFC9010BC0440F551F661F771FC1
:100E9000F7FC4160CC0CDD1CEE1CFF1C01974030C0
:100EA000A0E05A07A0E06A07A0E47A0768F38B87FE
:100EB0009C87DB01CA018F779070A070B07080347E
:100EC0009105A105B10561F447FD0AC0C114D10423
:100ED000E104F10429F0405C5F4F6F4F7F4F407891
:100EE0004D875E876F87788B83E08987CE0109966F
:100EF00002C089EA91E0DBD0462F572F682F792F67
:100F0000CB01BA01A096E0E18DC2A8E1B0E0EAE829
:100F1000F7E07AC2DC01CB018D839E83AF83B88773
:100F200029833A834B835C83CE010596BE016F5EB5
:100F30007F4F94D1CE010196BE01675F7F4F8ED166
:100F40008989823050F08985823038F0CE0141960F
:100F5000BE01675F7F4FEBD101C08FEF6896E2E083
:100F60006FC2A8E1B0E0E6EBF7E04EC2DC01CB01D6
:100F70008D839E83AF83B88729833A834B835C83B9
:100F8000CE010596BE016F5E7F4F68D1CE010196FE
:100F9000BE01675F7F4F62D18989823050F08985B9
:100FA000823038F0CE014196BE01675F7F4FBFD1DE
:100FB00001C08FEF6896E2E043C2A8E1B0E0E2EE44
:100FC000F7E022C2DC01CB018D839E83AF83B8871B
:100FD00029833A834B835C83CE010596BE016F5E05
:100FE0007F4F3CD1CE010196BE01675F7F4F36D166
:100FF0008989823050F08985823038F0CE0141965F
:10100000BE01675F7F4F93D101C081E06896E2E047
:1010100017C2ACE0B0E0EEE0F8E0F4C1DC01CB01D7
:1010200089839A83AB83BC83CE010196BE016B5F3B
:101030007F4F14D18D81823069F1823058F1843034
:1010400039F02F81388537FD25C02F31310544F027
:101050008E81882319F100E010E020E030E822C002
:101060008EE190E0821B930B09851A852B853C85C8
:1010700004C036952795179507958A95D2F78E81E6
:10108000882381F030952095109501951F4F2F4FA3
:101090003F4F08C000E010E0980104C00FEF1FEFC1
:1010A0002FEF3FE7B801C9012C96E4E0C7C1CF920A
:1010B000DF92EF92FF920F931F93DC0114964D91F4
:1010C0005D916D917C9117971196EC9111978C9190
:1010D000823020F460618FEF90E0A5C0843009F485
:1010E0009DC0823009F494C0411551056105710518
:1010F00009F491C012968D919C9113972FEF82382D
:1011000092070CF059C022E83FEF281B390B2A3117
:10111000310564F56A017B01022E04C0F694E79460
:10112000D794C7940A94D2F781E090E0A0E0B0E0B1
:1011300004C0880F991FAA1FBB1F2A95D2F70197D9
:10114000A109B10984239523A623B72341E050E0E8
:1011500060E070E00097A105B10519F440E050E0AF
:10116000BA014C295D296E297F2903C040E050E077
:10117000BA01DB01CA018F779070A070B070803423
:101180009105A105B10539F447FF09C0405C5F4FE7
:101190006F4F7F4F04C0415C5F4F6F4F7F4F81E0C7
:1011A00090E0403020E0520720E0620720E4720720
:1011B00038F580E090E024C0803891057CF58A0104
:1011C0009B010F77107020703070003411052105DD
:1011D000310539F447FF09C0405C5F4F6F4F7F4FC7
:1011E00004C0415C5F4F6F4F7F4F77FD03C0815854
:1011F0009F4F06C0769567955795479580589F4FA6
:1012000097E076956795579547959A95D1F70BC0D6
:1012100080E090E005C080E090E005C08FEF90E0B6
:1012200040E050E0BA01982F979599279795A62FFF
:10123000AF77E795EE27E79586953A2F392B282F3C
:101240002E2B842F952FA32FB22FBC01CD011F91E0
:101250000F91FF90EF90DF90CF900895DC01FB019C
:101260004C9111965C91119712968C911297682F60
:101270006F7770E0982F991F9927991F13962C91DB
:101280001397822F880F892B90E0221F2227221F7D
:101290002183009739F5411551056105710511F458
:1012A00082E029C082E89FEF9383828327E0440F86
:1012B000551F661F771F2A95D1F783E0808309C0E9
:1012C000440F551F661F771F828193810197938377
:1012D0008283403080E0580780E0680780E4780728
:1012E00078F320C08F3F910579F4411551056105D0
:1012F000710519F484E08083089564FF03C081E0E0
:10130000808310C010820EC08F57904093838283D9
:1013100083E0808387E0440F551F661F771F8A95FF
:10132000D1F7706444835583668377830895CF93A0
:10133000FC01DB019081923008F44CC08C9182302A
:1013400008F448C0943069F42181843039F411964E
:101350008C91119790E0821B910944C02223D1F116
:101360003FC0843021F0923041F48230B1F11196C7
:101370008C9111978823A1F12DC0C181823001F198
:1013800011968C911197C817D9F482819381129686
:101390002D913C9113972817390794F082179307E2
:1013A000BCF0448155816681778114968D919D9121
:1013B0000D90BC91A02D84179507A607B70718F4C8
:1013C000CC2341F00DC0481759076A077B0728F462
:1013D000CC2331F081E090E005C080E090E002C0D5
:1013E0008FEF9FEFCF9108952F923F924F925F9290
:1013F0006F927F928F929F92AF92BF92CF92DF9225
:10140000EF92FF920F931F93CF93DF93CDB7DEB789
:10141000CA1BDB0B0FB6F894DEBF0FBECDBF09941D
:101420002A88398848885F846E847D848C849B8474
:10143000AA84B984C884DF80EE80FD800C811B8182
:10144000AA81B981CE0FD11D0FB6F894DEBF0FBEB1
:0A145000CDBFED010895F894FFCF21
:10145A0054686520416476616E63656420456E63F5
:10146A0072797074696F6E205374616E646172640C
:10147A0020697320612073706563696669636174AA
:10148A00696F6E20666F722074686520656E63727C
:10149A00797074696F6E206F6620656C656374720B
:1014AA006F6E696320646174612065737461626C34
:1014BA0069736865642062792074686520552E53C3
:1014CA002E204E6174696F6E616C20496E73746967
:1014DA0074757465206F66205374616E64617264FA
:1014EA007320616E6420546563686E6F6C6F6779F0
:1014FA0020696E2032303031000000000000000008
:02150A000000DF
:00000001FF
